:020000040800F2
:10000000B00F0020454C00089D0300089F03000826
:10001000A3030008A7030008AB03000800000000CA
:10002000000000000000000000000000AF03000816
:10003000B103000800000000B3030008B503000886
:100040005F4C00085F4C00085F4C00085F4C0008E4
:100050005F4C00085F4C00085F4C00085F4C0008D4
:100060005F4C00085F4C00085F4C00085F4C0008C4
:100070005F4C00085F4C00085F4C00085F4C0008B4
:100080005F4C00085F4C00085F4C00085F4C0008A4
:100090005F4C00085F4C00085F4C00085F4C000894
:1000A0005F4C00085F4C00085F4C00085F4C000884
:1000B0005F4C00085F4C00085F4C00085F4C000874
:1000C0005F4C00085F4C00085F4C00085F4C000864
:1000D0005F4C0008852F00085F4C00085F4C00084B
:1000E0005F4C00085F4C00085F4C00085F4C000844
:1000F0005F4C00085F4C00085F4C00085F4C000834
:100100005F4C00085F4C00085F4C00085F4C000823
:100110005F4C00085F4C00085F4C00085F4C000813
:100120005F4C00085F4C00085F4C00085F4C000803
:1001300000F002F800F03AF80AA090E8000C8244BF
:100140008344AAF10107DA4501D100F02FF8AFF29C
:10015000090EBAE80F0013F0010F18BFFB1A43F0A5
:10016000010318476C4C00008C4C0000103A24BF6F
:1001700078C878C1FAD8520724BF30C830C144BF0C
:1001800004680C607047000000230024002500264E
:10019000103A28BF78C1FBD8520728BF30C148BFEA
:1001A0000B6070471FB51FBD10B510BD04F0CDFD2D
:1001B0001146FFF7F7FF00F051F804F0EBFD03B430
:1001C000FFF7F2FF03BC04F0F3FD0000EFF309803A
:1001D000704780F309887047EFF30880704780F319
:1001E0000888704740BA7047C0BA704757484117EF
:1001F000C0F88010421784210A504117C0F88011BE
:100200004FF4C2710A5000BF04214FF0E022116088
:1002100000BF704710B54E4800684E490840B0F125
:10022000005F10D1FFF7E2FF494840684A49086083
:10023000084600684949086045490868FFF7CFFF4C
:1002400046480068804710BD07E0FFF7E3FF4FF422
:100250007A72C821032002F025FEF6E7002402F09E
:10026000BBFE4FF4A06003F0A7F902F0BFFC02F060
:1002700097FD02F0B3FD02F009FE02F0BFFD4FF45E
:10028000E13002F033FE4FF4FA7002F0ECFC032090
:1002900000F070FA3249087008460078B8B10120C1
:1002A00000F0CBFA00F0F3FA2EA340F2C712472178
:1002B0004FF6FF7000F04BFB2EA3052211461F20C6
:1002C00000F045FB642002F0CEFC00F0D1FA02F011
:1002D000C1FE02F0D2FE08B9FFF7B6FF00F0C4F984
:1002E00000F09AF908B1FFF7AFFF00F065F8044697
:1002F000A4B91B48007878B120A3412205214FF40E
:10030000FC6000F024FB642002F0ADFC00F0B0FAC9
:100310004FF47A7002F0A7FCFFF796FF012C0ED184
:100320000F48007858B119A3412205214FF20F0060
:1003300000F00DFB642002F096FC00F099FA6422B4
:100340001146032002F0AEFDFFF77EFF00E100E062
:10035000005000080000FE2F0400002000000020D4
:10036000080000205A4D3345345F424F4F545F56CA
:1003700034000000426F6F742E2E2E0055706C6F8B
:1003800061642073756363657373210055706C6FCE
:100390006164206661696C2100000000704700BF45
:1003A000FEE700BFFEE700BFFEE700BFFEE77047C5
:1003B00070477047704700002DE9F84F0027BA4694
:1003C000B846012255A1594801F0DBFD04465748C3
:1003D000C068B0F5F42F02D90120BDE8F88F53486A
:1003E000C068400AC0F30729002C7CD14FF49670F6
:1003F00002F039FC4E4E6B46B2144E494B4801F0A8
:1004000096FE044684B14C48007858B14BA319229B
:1004100005214FF20F0000F09AFA642002F023FC4D
:1004200000F026FA0120D8E74348007850B14AA3EB
:10043000192205211F2000F08AFA642002F013FC23
:1004400000F016FA0098082801D20120C5E740E024
:1004500038493046009A00F03DF905460DB128466E
:10046000BBE7009806446B464FF4007231492F48B1
:1004700001F05DFE04460CB10120AEE7781C87B2A6
:1004800007F0020010B102F0EDFC01E002F0F4FC14
:1004900029480078E8B15046411C1FFA81FA4845C6
:1004A00017DB4FF0000A08F1010000F0FF0808F127
:1004B00005004FF4887190FBF1F201FB12001FFA66
:1004C00080FB3E235A462E21052000F0F6F900F06D
:1004D000CFF900980028BBD1144802F075F8044603
:1004E00014B1012079E715E021A124A002F0C1F99F
:1004F00090B11148007858B124A3412205214FF250
:100500000F0000F024FA642002F0ADFB00F0B0F917
:10051000002062E7052060E700205EE7303A2F66A2
:1005200069726D776172652E62696E00AC000020A1
:1005300000500008D00200200800002052656164CD
:10054000206669726D776172652066696C652066E8
:1005500061696C21000000004669726D7761726507
:100560002075706C6F6164696E672E2E2E0000001E
:100570006F6C645F66772E62696E00006669726DEB
:10058000776172652E62696E0000000052656E61CF
:100590006D65204661696C210000000038B50A22B3
:1005A00026A12A4801F0EDFC04460CB1012038BD1B
:1005B0006B460D2226A1254801F0A2FE04460CB18F
:1005C0000120F4E7214801F0FFFF04460CB10120AF
:1005D000EDE7012219A11D4801F0D3FC04460CB13E
:1005E0000120E4E76B460D221D49184801F09FFDEC
:1005F00004460CB10120DAE7144801F0E5FF044697
:100600000CB10120D3E7164911A004F05BFB08B13F
:100610000120CCE70020CAE770B5002000F000FA06
:1006200005460DB1012070BD0E49002001F096FC79
:1006300004460CB10120F6E70020F4E7303A2F68B9
:10064000656C6C6F2E747874000000000007002049
:1006500048656C6C6F20576F726C640A0000000074
:1006600024090020D004002010B503F032F8002047
:1006700010BD2DE9F04104460F46C4F30A0040B90D
:10068000204603F06BF80646042E02D00120BDE898
:10069000F081C4F30A0104F50060451A09E0284618
:1006A00003F05CF80646042E01D00120EFE705F5C3
:1006B0000065E019A842F2D8254606E02868B0F1A6
:1006C000FF3F01D00120E2E72D1DE019A842F5D837
:1006D0000020DCE72DE9F047064689461546294605
:1006E0003046FFF7C6FF10B10120BDE8F087C846CD
:1006F00000240BE058F8241006EB840003F0FEF809
:100700000746042F01D00120EFE7641CB4EB950FDE
:10071000F0D3002408E056F8240058F8241088424A
:1007200001D00120E1E7641CB4EB950FF3D3002066
:10073000DBE7000070B50546002400BF09E0B248C1
:10074000015DB24804F0C6F8012002F08CFA601C8A
:10075000C4B2AC42F3DB002409E0AD48015DAB4814
:1007600004F0B8F8012002F07EFA601CC4B2042C38
:10077000F3DB70BD70B50546002D01DC002070BDB7
:1007800000BF0020A34908804FF4FA76002404E05B
:100790000020A1490855601CC4B20A2CF8DB0024D3
:1007A000AA222146641C9848425400222146641C17
:1007B00042542046FFF7BEFF37E09848007870B3F8
:1007C00000209649087094480078AA2811D09148D2
:1007D000B0F90000002823DD00208E4908800024A5
:1007E00004E000208C490855601CC4B20A2CF8DBD8
:1007F00016E08848B0F90000032811DB864800782D
:10080000AA280DD18448407848B9834880784F2879
:1008100006D18148C0784B2802D10120AFE7FFE71D
:10082000012002F020FA701E06B2002EC5DC681E00
:1008300040B2051EA5DC0020A1E770B505460024E6
:10084000AA222146641C7048425434222146641C6A
:1008500042545A222146641C4254A5222146641C5B
:1008600042542146641C45542046FFF763FF70BD87
:1008700010B50024AA222146641C634842543D223C
:100880002146641C42542046FFF754FF10BD10B5AA
:100890000024AA222146641C5B48425401222146BE
:1008A000641C425400222146641C42542146641CAC
:1008B00042542046FFF73EFF10BD2DE9F0410546AA
:1008C0000E46174698460024AA222146641C4E482C
:1008D000425405222146641C425401222146641CD4
:1008E0004254FF222146641C42542146641C425457
:1008F0002A122146641C42542146641C455432127B
:100900002046611CCCB240490A542046611CCCB23E
:100910003D490E543A122046611CCCB23A490A5461
:100920002046611CCCB238490F544FEA2822204699
:10093000611CCCB234490A542046611CCCB2324905
:1009400001F800802046FFF7F5FEBDE8F0812DE9B3
:10095000F04706460F46904699460024A246AA2232
:100960002146641C2848425411222146641C4254EA
:1009700042222146641C425432122146641C4254D5
:100980002146641C465400222146641C42542146E0
:10099000641C42543A122046611CCCB21A490A54D3
:1009A0002046611CCCB218490F544FEA2822204639
:1009B000611CCCB214490A542046611CCCB21249C5
:1009C00001F80080484604F05DF9C4F164018842F2
:1009D00002D9C4F1640002E0484604F053F900F083
:1009E000FF0A002508E019F805202046611CCCB25A
:1009F00005490A54681CC5B25545F4DB2046FFF78B
:100A000099FEBDE8F08700000A0000200038014090
:100A10006E000020740000203109002072000020C8
:100A200070B50546002402F07DFC044634B102F0A6
:100A300035FBFF2002F02CFB02F035FB0CB101204E
:100A400070BD0020FCE70146002070472DE9F04111
:100A500005460E4617461C464FF0000805B914B966
:100A60000420BDE8F08122463946304602F024FDDC
:100A70008046B8F1000F06D002F010FBFF2002F014
:100A800007FB02F010FBB8F1000F01D10020E8E7EE
:100A90000120E6E72DE9F04105460E4617461C46C3
:100AA0004FF0000805B914B90420BDE8F0812246D2
:100AB0003946304602F038FD8046B8F1000F01D1CA
:100AC0000020F2E70120F0E72DE9F04106460F464D
:100AD000154616B10020BDE8F08137B1012F1AD0BC
:100AE000022F0FD0032F1BD111E000200F49086007
:100AF00002F001FB08B9002400E0012401200B49A9
:100B000008600FE04FF40070288000240AE00820FD
:100B10002880002406E002F0CAFB2860002401E0DF
:100B2000042400BF00BF2046D5E700009001214209
:100B30004FF00F30704701460020704702460020FA
:100B4000704770B503460C4603E014F8015B03F8E8
:100B5000015B151EA2F10102F7D170BD30B503464D
:100B600001E003F8011B141EA2F10102F9D130BD0E
:100B7000F0B503461C460D46002000BF161EA2F12C
:100B8000010207D014F8017B15F801CBA7EB0C0686
:100B9000301EF3D0F0BD024600E0521C107810B1B8
:100BA00010788842F9D1107870472DE9F041044659
:100BB0000D46E66AAE422FD0207908B36078012353
:100BC000324604F13001FFF765FF10B10120BDE8A6
:100BD000F08100202071A169206A0844B0420FD939
:100BE000E7780AE0A069064460780123324604F100
:100BF0003001FFF74FFF781EC7B2012FF2DC00BFB4
:100C000055B1607801232A4604F13001FFF71EFF39
:100C100008B10120DBE7E5620020D8E770B50446A3
:100C200000212046FFF7C1FF0546002D59D120784D
:100C300003284FD1A07A00284CD00020E0624FF466
:100C40000072002104F13000FFF788FF552184F87D
:100C50002E12AA2184F82F12522084F8300052213B
:100C600031200155612132200155412133200155A8
:100C7000722184F8141284F81512412184F8161296
:100C8000612184F81712217C84F81812208A010A45
:100C900084F819122069010C84F81A122069010ED7
:100CA00084F81B12217B84F81C12A089010A84F8A5
:100CB0001D12E068010C84F81E12E068010E84F831
:100CC0001F126078012304F130016269FFF7E2FE30
:100CD0000020A072607800221146FFF7F5FE00B1F7
:100CE0000125284670BD2DE9F04105460C46022C31
:100CF00002D3E869A04202D80120BDE8F0812F6A42
:100D00002878012804D002282AD0032870D140E096
:100D1000264606EB560607EB56212846FFF745FF09
:100D200000B165E0C6F3080105F1300010F801805C
:100D3000761C07EB56212846FFF737FF00B157E036
:100D4000C6F3080105F13000405C48EA002804F0D1
:100D5000010010B14FEA1810CFE7C8F30B00CCE741
:100D600007EB14212846FFF720FF00B140E040F2D6
:100D7000FF1000EA440105F13000415C40F2FF1031
:100D800000EA440205F130001044407841EA0020B6
:100D9000B3E707EBD4112846FFF707FF00B127E0C0
:100DA00040F2FF1000EA840105F130000844C078E9
:100DB000010640F2FF1000EA840205F13000104401
:100DC000807841EA004140F2FF1000EA840205F118
:100DD00030001044407841EA002040F2FF1101EA5F
:100DE000840205F13001895C084320F0704084E7FB
:100DF00000BF4FF0FF3080E72DE9F04705460C4675
:100E00001646022C02D3E869A04201D8022793E0DB
:100E1000D5F820A02878012804D0022841D0032842
:100E20007DD157E0A04608EB58080AEB5821284628
:100E3000FFF7BBFE074607B17BE0C8F3080105F1E9
:100E4000300001EB000904F0010028B1F1B299F87B
:100E5000000061F31F1000E0304689F8000008F13F
:100E60000108012028710AEB58212846FFF79DFE52
:100E7000074607B15DE0C8F3080105F1300001EB5A
:100E8000000904F0010010B1C6F3071006E099F85C
:100E9000000000F0F000C6F30321084389F80000C9
:100EA00047E00AEB14212846FFF77FFE074607B10B
:100EB0003FE040F2FF1000EA440205F130008654A2
:100EC000310A40F2FF1000EA440205F130001044FC
:100ED00041702EE00AEBD4112846FFF766FE074664
:100EE00007B126E040F2FF1000EA840205F130006D
:100EF0008654310A40F2FF1000EA840205F1300006
:100F000010444170310C40F2FF1000EA840205F1F8
:100F1000300010448170310E40F2FF1000E006E016
:100F200000EA840205F130001044C17001E002279C
:100F300000BF00BF012028713846BDE8F0872DE9C9
:100F4000F04104460E46022E02D3E069B04201D8B9
:100F5000022725E000271FE031462046FFF7C3FEA9
:100F6000054605B91BE0012D01D1022717E0681CD9
:100F700008B9012713E0002231462046FFF73CFF65
:100F8000074607B10BE02069401C20B12069401CD6
:100F900020610120A0722E46E069B042DCD800BF7B
:100FA0003846BDE8F0812DE9F04705468846D5F87A
:100FB0001C90B8F1000F05D1EE680EB14E4510D36C
:100FC00001260EE041462846FFF78DFE0746022F18
:100FD00002D20120BDE8F0874F4501D23846F9E73B
:100FE0004646344600BF641C4C4504D30224B44238
:100FF00001D90020EEE721462846FFF774FE074698
:1010000007B909E0781C08B1012F01D13846E1E7A2
:10101000B442E8D10020DDE700BF6FF07042214606
:101020002846FFF7E9FE10B14FF0FF30D2E7B8F1E4
:10103000000F08D0224641462846FFF7DDFE10B1DA
:101040004FF0FF30C6E7EC602869401C20B12869EA
:10105000401E28610120A8722046BBE70246891E77
:10106000D069801E884201D8002070479378906A2A
:1010700001FB0300F9E72DE9F04104460E46E68046
:10108000A568012D03D02068C069A84202D80220BB
:10109000BDE8F0812DB920680078032801D12068CF
:1010A000456A65B9E56020680089B04201DC02202C
:1010B000EEE72068406A00EB1610206120E020680F
:1010C0008078070112E029462068FFF70CFE0546EC
:1010D000681C08B90120DBE7022D03D32068C06932
:1010E000A84201D80220D3E7F01B86B2BE42EADA5A
:1010F000E56029462068FFF7B1FF00EB161020617C
:101100002068303006F00F0100EB411060610020D4
:10111000BEE72DE9F04104468846E088401C86B2CF
:101120000EB1206910B90420BDE8F08106F00F006F
:1011300000286FD12069401C2061E06828B9206830
:101140000089B04266DC0420EEE720688078401E0B
:1011500000EA161000285DD1E1682068FFF7C3FDA2
:101160000546012D01D80220DEE7681C08B90120E0
:10117000DAE72068C069A84246D8B8F1000F01D16B
:101180000420D1E7E1682068FFF70DFF05460DB99F
:101190000720C9E7012D01D10220C5E7681C08B965
:1011A0000120C1E700212068FFF7FFFC08B1012002
:1011B000BAE7216801F130004FF400720021FFF717
:1011C000CDFC29462068FFF749FF2168C862002747
:1011D00010E001202168087100212068FFF7E5FC7C
:1011E00008B10120A0E72068C06A401C2168C862DD
:1011F000781CC7B220688078B842EADC2068C06AF0
:10120000C01B2168C86200BFE56029462068FFF75F
:1012100025FF2061E6802068303006F00F0100EBEA
:101220004110606100207FE7F0B505460A4610785E
:1012300000F0BF00401E00EB800101EBC00600245F
:1012400000BFF749095D515CF54F3F5D17447F785A
:1012500041EA0720FFF76FFC0346FF2E07DA31460D
:10126000761C35F81100FFF766FC984201D000208B
:10127000F0BD601C04460D2801DA002BE1D10120ED
:10128000F6E770B50346087800F03F00401E00EB1B
:10129000800606EBC002002400BFFF2A01DB00200D
:1012A00070BDDF48005D085CDD4E365D0E4476782B
:1012B00040EA062505B907E01046521C23F81050F5
:1012C000601C04460D28E8DB00BF087800F04000F1
:1012D00030B1FF2A01DB0020E2E7002023F81200F2
:1012E0000120DDE7F0B504461D464D730F27CF7290
:1012F00000270F738F76BC4681F81BC0571E07EB83
:10130000870C0CEBC706002738463B4600BF4FF65C
:10131000FF77B84203D03746761C34F81700DFF861
:1013200000C31CF803C001F80C000712DFF8F0C27C
:101330001CF803C08C448CF8017008B94FF6FF709C
:101340005F1C3B460D2FE2DB4FF6FF77B84202D021
:1013500034F816700FB942F040020A70F0BD2DE962
:10136000FC470546894690461E460B2249462846BC
:10137000FFF7E7FB052E0BDD00BF701000EBC63159
:1013800038F8022B881886B2B8F800000028F4D18B
:10139000072700BF0A2096FBF0F100FB11603030F8
:1013A000C2B238467F1E0DF800200A2096FBF0F0EE
:1013B00086B2002EEED17E200DF80700002411E049
:1013C000285D812802DB285D9F2805DD285DE02857
:1013D00007DB285DFC2804DC781EA04200D106E073
:1013E000641C641CBC4202DA285D2028E8D100BFDE
:1013F00000BF082F04DA38467F1C1DF8000000E00B
:1014000020202146641C6854082CF2DBBDE8FC87D0
:1014100030B5014600200B2200BF431003EBC0147F
:1014200011F8015B6319D8B2531E1A1EF5D130BDF5
:101430002DE9F05F044600212046FFF71CFE8046A0
:10144000B8F1000F02D04046BDE8F09FFF27BB4631
:10145000A069C07A00F0010A00BF21692068FFF787
:10146000A4FB8046B8F1000F00D052E065692E78E9
:1014700016B94FF004084CE0E87A00F03F09E52E79
:1014800005D009F0080020B1B9F10F0F01D0FF27F6
:1014900037E0B9F10F0F1DD1E06980B306F04000CD
:1014A00030B195F80DB006F0BF063746E0882084CD
:1014B000BE420CD1687B584509D1BAF1000F04D067
:1014C0002946E069FFF7B0FE08B1781E00E0FF2072
:1014D000C7B216E027B92846FFF79AFF584502D051
:1014E0004FF6FF702084BAF1000F01D047B910E029
:1014F0000B222846A169FFF73BFB08B909E000E091
:10150000FF2700212046FFF704FE8046B8F1000FB8
:10151000A3D000BF404697E72DE9F04704464FF0BF
:10152000FF09CA4604274CE021692068FFF73DFB0C
:10153000074607B148E0666935780DB9042743E0EE
:10154000F07A00F03F08E52D07D02E2D05D008F0E9
:10155000080028B1B8F10F0F02D04FF0FF0929E0C1
:10156000B8F10F0F1AD105F0400030B196F80DA078
:1015700005F0BF05A946E08820844D450AD1707B5F
:10158000504507D13146E069FFF77BFE10B1A9F164
:10159000010000E0FF2000F0FF090BE0B9F1000FAF
:1015A00004D13046FFF734FF504502D04FF6FF70AC
:1015B000208409E000212046FFF7ABFD074607B174
:1015C00002E020690028AFD100BF0FB100202061E8
:1015D0003846BDE8F0872DE9F04F85B00446D4F8D1
:1015E0001880D4F81CB00C22414601A8FFF7A9FAD4
:1015F00000BF9DF80F0000F0010040B3002088F804
:101600000B00E06101270FE03B465A4601A9404626
:10161000FFF7A5FE2046FFF70BFF054615B105E0D5
:10162000BE4D0008781C87B2642FEDDB00BF642F2D
:1016300003D1072005B0BDE8F08F042D01D0284666
:10164000F8E79DF80F0088F80B00C4F81CB09DF86F
:101650000F0000F0020070B1002601E0701C86B29D
:101660003BF816000028F9D106F119000D2190FB76
:10167000F1F086B200E0012600212046FFF7FBFCD6
:1016800005460DB12846D5E700200746049000BF67
:1016900021692068FFF789FA054605B119E06069FC
:1016A00090F80090B9F1E50F02D0B9F1000F08D120
:1016B0000FB9E0880490781C80B20746B04201D18F
:1016C00007E0002701212046FFF723FD0546002DF6
:1016D000DED000BF4DBB012E27DD20460499FFF769
:1016E000CAFC05460DBBA069FFF792FE0090701E74
:1016F00086B200BF21692068FFF757FA054605B199
:1017000012E0F2B26169E069009BFFF7EBFD012096
:101710002168087100212046FFF7FBFC05461DB932
:10172000701E80B2061EE5D100BFD5B921692068C0
:10173000FFF73BFA0546A5B9D4F814A020220021F2
:101740005046FFF70BFA0B225046A169FFF7F9F953
:10175000A069C07A00F018008AF80C000120216806
:101760000871284666E770B50446E688208C4FF677
:10177000FF72904201D1304600E0208C01462046A5
:10178000FFF779FC0546E5B900BF21692068FFF73E
:101790000CFA054605B110E0E520616908700120EA
:1017A00021680871E088B04200DB06E00021204695
:1017B000FFF7AFFC0546002DE7D000BF042D00D198
:1017C0000225284670BD2DE9F34F83B081460020E5
:1017D00005460746049800680190D9F81CA000BF90
:1017E00038467F1C01990C5C202C03DB2F2C01D088
:1017F0005C2C00D131E0FF2D03DB062005B0BDE8F5
:10180000F08FE4B2812C02DBE0B29F2805DDE0B26C
:10181000E02814DBE0B2FC2811DC38467F1C019A7A
:10182000115C402901DB7E2905DD802901DBFC29D3
:1018300001DD0620E2E701EB042084B200BF802C2A
:1018400006DA2146FDA0FFF7A6F908B10620D5E784
:1018500028466D1C2AF81040C2E700BF0198C11944
:1018600004980160202C01DA042000E000200646E4
:1018700008E0681E3AF81040202C02D02E2C00D030
:1018800002E06D1E002DF4D100BF0DB90620B5E7B2
:1018900000202AF815000B222021D9F81800FFF7A4
:1018A0005DF9002700E07F1C3AF817002028FAD0E5
:1018B0003AF817002E28F6D00FB146F0030600E0E4
:1018C0006D1E25B1681E3AF810002E28F8D14FF091
:1018D0000008CDF808804FF0080B00BF38467F1C89
:1018E0003AF8104004B965E0202C03D02E2C04D126
:1018F000AF4202D046F00306F0E70298584501DAFD
:10190000AF4216D1BBF10B0F02D146F0030651E0F6
:10191000AF4201D046F00306AF4200DD4AE02F4659
:10192000082002904FF00B0B4FEA88604FEA1068D6
:10193000D4E7802C09DB2046FFF7FDF803460021A1
:10194000FFF7FCF8044646F00206FF2C11DDABF170
:1019500001000299884204DC46F00306CDF808B085
:10196000BCE72212D9F818300298411C02911A548F
:1019700019E024B12146B4A0FFF70DF918B15F2496
:1019800046F003060FE0412C04DB5A2C02DC48F041
:10199000020808E0612C06DB7A2C04DC48F0010820
:1019A000A4F1200084B2D9F818300298411C0291A9
:1019B0001C5493E700BFD9F818000078E52803D13C
:1019C0000520D9F818100870BBF1080F03D14FEAB1
:1019D00088604FEA106808F00C000C2803D008F06B
:1019E0000300032801D146F0020606F0020058B9B0
:1019F00008F00300012801D146F0100608F00C00A1
:101A0000042801D146F00806D9F81800C672002053
:101A1000F4E62DE9F84F80460E4606F10907D8F89E
:101A20001000002851D0D8F81430187B0090002402
:101A300014E01D5D202D00D112E0052D00D1E5251B
:101A4000009800F0080030B1412D04DB5A2D02DC73
:101A500005F12000C5B207F8015B641C082CE8DB27
:101A600000BF187A202819D02E2007F8010B08246F
:101A700011E01D5D202D00D10FE0009800F0100056
:101A800030B1412D04DB5A2D02DC05F12000C5B236
:101A900007F8015B641C0B2CEBDB00BFD87A3072BB
:101AA000D87F0106987F41EA0041587F41EA002033
:101AB000197F08433060197E587E41EA0020B080CB
:101AC000997DD87D41EA0020F08000203870D6F85A
:101AD0001890B9F1000F33D00024D8F8100058B393
:101AE000B8F820004FF6FF71884225D0D8F81CB016
:101AF0001CE000215046FFF721F88246BAF1000FA2
:101B000001D1002417E0BAF1FF0F05DD4FEA2A22C8
:101B10002046641C09F80020F069401EA04201DC48
:101B2000002408E02046641C09F800A03BF8021BD2
:101B3000B1F1000ADDD100BF002009F8040000BFA8
:101B4000BDE8F88F2DE9F3410446019800782F286D
:101B500003D0019800785C2802D10198401C0190C4
:101B60000020A06001980078202807D2002120469C
:101B7000FFF781FA0646002060612BE000BF01A953
:101B80002046FFF720FE064606B122E02046FFF77A
:101B90004FFC0646A069C07A00F0040726B1042E67
:101BA00001D107B9052614E007B112E06569E87AAA
:101BB00000F0100008B905260BE0A97EE87E41EA96
:101BC00000212A7D687D42EA002041EA0040A060B1
:101BD000D5E700BF3046BDE8FC8170B504460D4630
:101BE000607801232A4604F13001FEF72FFF08B187
:101BF000032070BD94F82E1294F82F0241EA0020C1
:101C00004AF65521884201D00220F2E7032210490A
:101C100004F16600FEF7ACFF08B90020E9E70322F3
:101C20000B4904F18200FEF7A3FF98B994F858001D
:101C300000F0800070B90020DBE70000222A3A3C67
:101C40003E3F7C7F000000002B2C3B5B3D5D000095
:101C5000CB4D00080120CCE72DE9F74F84B0049864
:101C6000D0F800B09BF80000A0F13009B9F1090FDD
:101C700009D89BF801003A2805D10BF1020B049812
:101C8000C0F800B001E04FF00009B9F1000F03D037
:101C90000B2007B0BDE8F08FFE4850F829400598AA
:101CA00004600CB90C20F4E7207878B16078FEF776
:101CB000CAFE804608F0010040B9069820B108F03D
:101CC000040008B10A20E4E70020E2E700202070C9
:101CD00084F801906078FEF7A3FE804608F00100CA
:101CE00008B10320D5E7069820B108F0040008B138
:101CF0000A20CEE74FF0000A51462046FFF76DFF5D
:101D00000546012D13D104F5F777387978B1F87AC3
:101D10000106B87A41EA0041787A41EA0020397A2E
:101D200040EA010A51462046FFF757FF0546032DBA
:101D300001D10120ADE745B93B20015D94F83C009D
:101D400041EA0020B0F5007F01D00D20A1E7462038
:101D5000015D94F8470041EA002676B994F85700EF
:101D6000010694F8560041EA004194F8550041EA12
:101D7000002094F8541040EA0106A6614020005D5E
:101D8000E070E07846433E20015D94F83F0041EA70
:101D90000020504420623D20005DA0704120015D84
:101DA00094F8420041EA002020814320015D94F82C
:101DB000440041EA00200290029870B994F8530060
:101DC000010694F8520041EA004194F8510041EABA
:101DD000002094F85010084302903E20015D94F8D2
:101DE0003F0041EA00210298401A801B2189A0EBA4
:101DF0001110A178B0FBF1F0801C0190E061012589
:101E000040F6F7710198884200D302254FF6F7712A
:101E10000198884200D30325032D0FD194F85F0069
:101E2000010694F85E0041EA004194F85D0041EA41
:101E3000002094F85C100843606202E0206A30449D
:101E40006062206A3044218900EB1110A0624FF0DB
:101E5000FF30206100202071032D5CD1A07294F826
:101E6000601094F8610041EA00205044606160789D
:101E7000012304F130016269FEF7E8FDF0BB94F83C
:101E80002E1294F82F0241EA00204AF6552188428A
:101E900041D13320005D01063220005D41EA00415E
:101EA0003120005D41EA002094F8301008437A495F
:101EB000884230D194F81702010694F8160241EADC
:101EC000004194F8150241EA002094F814120843E6
:101ED000724988421FD194F81F02010694F81E022D
:101EE00041EA004194F81D0241EA002094F81C12D6
:101EF0000843E06094F81B02010600E00BE094F850
:101F00001A0241EA004194F8190241EA002094F8CB
:101F100018120843206125700020E06260480088A4
:101F2000401C80B25E490880E08000200390039846
:101F3000AFE670B504460D4624B1207810B1E088B4
:101F4000A84201D0092070BD6078FEF77CFD00F04A
:101F5000010008B10320F6E70020F4E70246012A59
:101F600001DB0B2070474B4850F822300BB10020AA
:101F7000187009B100200870464840F8221000206F
:101F8000F0E72DE9F747ADF50D7D054616460DF155
:101F9000040A0020286006F01F0606F01E0284A92D
:101FA0008EA8FFF759FE074627B138460DF5107D7C
:101FB000BDE8F08781A88A90CDF82CA284A88E99DC
:101FC000FFF7C0FD074606F01C00002872D067B17D
:101FD000042F03D184A8FFF7FEFA07460FB1384655
:101FE000E4E746F00806899C41E006F0040008B1E9
:101FF0000820DBE7899C1CB1E07A00F0110008B1F1
:102000000720D3E706F0080080B3A17EE07E41EA16
:102010000021227D607D42EA002041EA0049002043
:10202000207500216175A076E17620776177A17730
:10203000E1770120849908718498D0F82C80B9F157
:10204000000F0BD049468498FEF779FF07460FB181
:102050003846ABE7A9F101008499C86041468498ED
:10206000FEF7A3FD07460FB138469FE7FFE706F0EE
:102070000800F0B10020E072FEF75AFD804684F8B7
:102080000E804FEA1821E1734FEA184121744FEA9C
:10209000186108E07800002052526141727241617B
:1020A0007C00002006E0617401208499087146F0EC
:1020B000200613E00FB1384678E7899C1CB1E07A1E
:1020C00000F0100008B1042070E706F0020028B10B
:1020D000E07A00F0010008B1072067E78498C06A41
:1020E000E86189982862AE71A17EE07E41EA002114
:1020F000227D607D42EA002041EA00402861E07FC5
:102100000106A07F41EA0041607F41EA0020217F73
:102110000843E8600020A860FF20E8710020A86163
:10212000849828608498C088A88000203EE72DE924
:10213000FF4F83B0044615469946DDF810A00020F5
:10214000C9F80000A1882068FFF7F3FE029002980A
:1021500018B1029807B0BDE8F08FA07900F08000B8
:1021600008B10220F6E7A07900F0010008B90720C5
:10217000F0E7D4E90210401A01900198854200D995
:10218000019DB8E02089C0F3080000287BD1E079E8
:102190002168897888421EDBA06808B9206903E0BD
:1021A00061692068FEF79FFD8346BBF1010F05D8EA
:1021B000A07940F08000A0710220CBE70BF1010074
:1021C00028B9A07940F08000A0710120C2E7C4F8CE
:1021D00014B00020E07161692068FEF73FFF0646F9
:1021E0002EB9A07940F08000A0710220B2E7E0791A
:1021F00006444FEA5528B8F1000F31D0E079404449
:1022000021688978884204D920688078E179A0EB38
:10221000010808F0FF032168487832465146FEF76E
:1022200015FC28B1A07940F08000A071012091E751
:10223000A07900F0400068B1A069801B404509D238
:10224000A169891B0AEB41204FF4007204F12401BB
:10225000FEF777FCE0794044E0714FEA482740E020
:10226000A07900F0400098B121684878012304F17A
:102270002401A269FEF70EFC30B1A07940F0800085
:10228000A071012066E719E0A07920F04000A0715C
:10229000A069B0420ED0216848780123324604F18B
:1022A0002401FEF7D3FB28B1A07940F08000A07193
:1022B00001204FE7A661E079401CE0712089C0F35E
:1022C0000800C0F50077AF4200D92F462089C0F33F
:1022D000080204F1240011183A465046FEF731FC7A
:1022E00000BFBA44A0683844A060D9F80000384460
:1022F000C9F80000ED1B002D7FF444AF002029E752
:102300002DE9FF4F81B0044615469A46DDF808B026
:102310000020CAF80000A1882068FFF70AFE00909C
:10232000009818B1009805B0BDE8F08FA07900F0D2
:10233000800008B10220F6E7A07900F0020008B999
:102340000720F0E7E0682844E168884200D20025D1
:10235000CEE02089C0F30800002875D1E07921681B
:10236000897888422CDBA06858B9D4F81090B9F16C
:10237000000F0BD100212068FEF715FE8146206179
:1023800004E061692068FEF70EFE8146B9F1000F96
:1023900000D1B0E0B9F1010F05D1A07940F0800083
:1023A000A0710220BFE709F1010028B9A07940F02F
:1023B0008000A0710120B6E7C4F814900020E071FD
:1023C000A07900F0400090B121684878012304F121
:1023D0002401A269FEF75EFB28B1A07940F08000DD
:1023E000A07101209FE7A07920F04000A0716169F1
:1023F0002068FEF733FE06462EB9A07940F0800033
:10240000A07102208FE7E07906444FEA5528B8F121
:10241000000F32D0E079404421688978884204D99D
:1024200020688078E179A0EB010808F0FF032168BB
:10243000487832465946FEF72DFB30B1A07940F07E
:102440008000A07101206EE731E0A069801B40454B
:102450000DD2A069801B0BEB40214FF4007204F1F8
:102460002400FEF76EFBA07920F04000A071E07917
:102470004044E0714FEA482730E0A069B04212D0F2
:10248000D4E9020188420ED22168487801233246FD
:1024900004F12401FEF7DAFA28B1A07940F08000B7
:1024A000A07101203FE7A661E079401CE07120891E
:1024B000C0F30800C0F50077AF4200D92F4621894C
:1024C000C1F3080204F1240150183A465946FEF7B8
:1024D00038FBA07940F04000A07100BFBB44A06869
:1024E0003844A060DAF800003844CAF80000ED1B58
:1024F000002D7FF42EAF00BFD4E90201884201D93C
:10250000A068E060A07940F02000A07100200AE7F8
:102510002DE9F0410446A1882068FFF70AFD07462F
:10252000002F4FD1A07900F0200000284AD0A079D8
:1025300000F0400078B121684878012304F12401BB
:10254000A269FEF7A7FA10B10120BDE8F081A079D9
:1025500020F04000A071E1692068FEF726FB0746E5
:10256000002F2FD1256AE87A40F02000E872207B06
:102570002877A089010A6977E068010CA977E068EB
:10258000010EE977207CA876208A010AE976206985
:10259000000C28752069010E6975FEF7C9FA064618
:1025A000AE75310AE975310C2976310E6976A0795C
:1025B00020F02000A0710120216808712068FEF73A
:1025C0002DFB07463846C0E770B504462046FFF7A6
:1025D0009FFF05460DB900202060284670BD2DE9FB
:1025E000F04704460E46A1882068FFF7A2FC824609
:1025F000BAF1000F02D05046BDE8F087A07900F094
:10260000800008B10220F7E7E068B04204D2A07968
:1026100000F0020000B9E668D4F808904FF0000816
:10262000C4F80880FF20E071002E7DD020688078FB
:102630004702B9F1000F11D0701EB0FBF7F1A9F1FC
:102640000100B0FBF7F0814208D3A9F10100791E27
:102650008843A060A068361A656918E02569ADB99D
:1026600000212068FEF79FFC0546012D05D1A079C9
:1026700040F08000A0710220BEE7681C28B9A07954
:1026800040F08000A0710120B6E725616561002D52
:102690004AD029E0A07900F0020038B1294620682C
:1026A000FEF781FC054635B93E461FE02946206805
:1026B000FEF719FB0546681C28B9A07940F0800098
:1026C000A071012098E7012D03D92068C069A842B4
:1026D00005D8A07940F08000A07102208CE76561E8
:1026E000A0683844A060F61BBE42D3D800BFA068E3
:1026F0003044A060C6F34720E071C6F3080068B11B
:1027000029462068FEF7AAFC8046B8F1000F06D1E2
:10271000A07940F08000A07102206DE704E0E0792C
:102720008044E079401CE0712089C0F3080050B378
:10273000A069404527D0A07900F0400090B1216801
:102740004878012304F12401A269FEF7A3F928B116
:10275000A07940F08000A07101204DE7A07920F021
:102760004000A071216848780123424604F1240109
:10277000FEF76CF928B1A07940F08000A07101202B
:102780003AE7C4F81880D4E90201884205D9A06864
:10279000E060A07940F02000A07150462CE7F3B52E
:1027A000ADF5037D04466F460022214684A8FFF75D
:1027B00053FA06463EBB80A8A061E7612046849993
:1027C000FFF7C0F90646DEB9656985B1E87A00F021
:1027D000100058B1A97EE87E41EA00212A7D687D7B
:1027E00042EA002041EA0040A06000E005263EB930
:1027F0002068C088A08000212046FEF73CFC0646E9
:10280000042E00D1052630460DF5057DF0BDF0B54E
:10281000ADF5037D04460E466F46A1882068FFF79C
:1028200088FB05460DBB80A8A061E7612EB9002199
:102830002046FEF720FC054617E02046FEF76CFE1A
:102840000546042D02D10020206100256DB93146D6
:102850002046FFF7DEF800212046FEF75AFC054629
:10286000042D02D100202061002528460DF5037DAE
:10287000F0BD2DE9F341ADF51C7D0F460DF11C08AF
:1028800087A89990CDF86882012293A99CA8FFF7A8
:10289000E3F905463DB993988A9093A89C99FFF770
:1028A00051F9054600BF25B128460DF51E7DBDE84E
:1028B000F081989808B90420F7E7989800F10B0187
:1028C000152201A8FEF73DF9242293A98AA8FEF754
:1028D00038F939468AA8FFF735F9054605B90825BC
:1028E000042D59D18AA8FEF776FE0546002D53D156
:1028F0008F9C13220DF1060104F10D00FEF721F962
:102900009DF8040040F02000E072012093990871C6
:10291000E07A00F01000002834D0237D627D43EA85
:10292000022294F81AC0E37E4CEA032342EA030130
:102930008A98FEF793FB06460EB9022522E031463F
:102940008A98FEF732F905468A9800F15004CDB90D
:1029500060782E2816D18A980078032806D18A99A3
:102960008C98496A884201D1002000E08C98064684
:10297000A676310AE176300C2075310E61750120A2
:102980008A99087145B993A8FEF7EDFE05461DB971
:102990009398FEF743F90546284686E72DE9F84364
:1029A00006460F469046002534460FE06B4601224E
:1029B00021464046FFF7BBFB0098012800D008E005
:1029C0006D1C14F8011B0A2900D102E0781EA842F0
:1029D000ECDC00BF0020207015B13046BDE8F88364
:1029E0000020FBE77CB505460C460CB928467CBDAB
:1029F000E8B2009001AB012269462046FFF780FC57
:102A0000019808B12846F2E74FF0FF30EFE770B5C4
:102A100004460E4600250AE020783146FFF7E2FF23
:102A2000401C10B94FF0FF3070BD641C6D1C207845
:102A30000028F1D12846F7E70FB42DE9F04F87B011
:102A4000834612A80690002080460190BAE01198B3
:102A500010F8014B119004B9B9E0252C0AD0594661
:102A60002046FFF7BFFF804608F1010008B14FF094
:102A70000108A4E0002006468246119810F8014B98
:102A80001190302C04D10126119810F8014B1190AF
:102A900009E0A4F130000AEB8A0100EB410A119829
:102AA00010F8014B1190302C01DB392CF1DD6C2C2E
:102AB00005D146F00206119810F8014B1190732CC5
:102AC00007D1069901C906915946FFF7A0FF804634
:102AD00075E0632C0CD1069901C906915946FFF7A0
:102AE00081FF804608F1010008B14FF0010866E05F
:102AF0004FF00009642C01D14FF00A09752C01D167
:102B00004FF00A09582C01D14FF01009B9F1000F0C
:102B100000D15CE006F0020018B1069880C806906B
:102B20000DE0642C05D1069800680699091D0691F0
:102B300004E0069800680699091D06910746642C72
:102B400005D107F0004010B17F4246F004060F2582
:102B5000002002A9485500BFB7FBF9F009FB10702F
:102B60003030C4B2392C01DDE01DC4B2681E054608
:102B700002A90C54B7FBF9F70DB1002FECD13DB110
:102B800006F0040020B12D21681E054602AA11544A
:102B9000CAF10F0A09E006F0010008B1302100E097
:102BA0002021681E054602AA11540DB15545F2DCDC
:102BB00002A948195946FFF72AFF804600BF01982D
:102BC0004044019008F1010000287FF440AF00BFAD
:102BD0000020069008F1010028B9404607B0BDE882
:102BE000F00F5DF814FB0198F8E7000010B56FF0E6
:102BF000040000F030FD2E4800682E49B0FBF1F0D3
:102C00002D4908700846007800EB4001C1EBC01068
:102C10004FF6FF7101EAC0002849088010BD014647
:102C2000254A12784A434FF0E0235A6100229A6104
:102C30001A46126942F001021A6100BF4FF0E02209
:102C4000106900F001021AB100F48032002AF5D0B8
:102C50004FF0E022126922F001024FF0E0231A61E6
:102C600000229A6170470146144A12884A434FF085
:102C7000E0235A6100229A611A46126942F0010269
:102C80001A6100BF4FF0E022106900F001021AB192
:102C900000F48032002AF5D04FF0E022126922F0D1
:102CA00001024FF0E0231A6100229A617047000090
:102CB0009800002000127A007E0000208000002092
:102CC00070B50546002405E0601CC4B2C82C01DDC7
:102CD000002070BD02212F4801F089FC0028F3D0AC
:102CE00029462C4801F030FC002405E0601CC4B2E9
:102CF000C82C01DD0020ECE70121264801F077FC1B
:102D00000028F3D0234801F021FCC0B2E1E708B568
:102D1000012141F2040001F0B7FAE020ADF8000013
:102D200018208DF8030003208DF8020069461A4828
:102D300000F0EEFFE021184801F097F80020174955
:102D400008804FF482704880002088800220C8806C
:102D50000120088140024881382088810020C881F4
:102D6000072008820B4801F019FB0121094801F0F6
:102D7000BAFBFF20FFF7A4FF08BD10B504460748C3
:102D800084810146034801F009FB0121014801F05B
:102D9000AAFB10BD00300140000801403C090020A2
:102DA00008B50121042001F06FFA14208DF803000A
:102DB0000220ADF800006946474800F0A9FF012154
:102DC000082001F061FA10208DF803000120ADF811
:102DD00000006946414800F09BFF08BD08B501218D
:102DE000042001F051FA10208DF803000820ADF8FE
:102DF00000006946384800F08BFF08BD08B5012186
:102E0000702001F041FA14208DF803004FF448605F
:102E1000ADF800006946324800F07AFF4FF448618F
:102E20002F4801F022F814208DF8030044F6040026
:102E3000ADF8000069462B4800F06AFF44F6040133
:102E4000284801F012F814208DF803004120ADF855
:102E500000006946244800F05BFF4121224801F050
:102E600004F808BD10B502211B4801F000F801214B
:102E70001A4800F0FAFF10BD10B50221164800F004
:102E8000F4FF0121154800F0F2FF10BD10B5082134
:102E9000114800F0EAFF10BD10B508210E4800F0FF
:102EA000E6FF10BD70B506460D46144609E0FFF773
:102EB000D9FF2846FFF7D7FEFFF7DEFF2846FFF7CA
:102EC000D2FE301EA6F10101CEB2F0D114B12046DF
:102ED000FFF7C9FE70BD000000080140000C014072
:102EE00000100140001401400018014010B586B0E8
:102EF0000446012144F2040001F0C6F94FF40070C9
:102F0000ADF8140003208DF8160018208DF8170076
:102F100005A92C4800F0FCFE4FF48060ADF81400C9
:102F200004208DF8170005A9264800F0F1FE2520A1
:102F30008DF8000003208DF801008DF802000120BB
:102F40008DF80300684600F03CFB01940020ADF8CA
:102F50000800ADF80A00ADF80C00ADF810000C2028
:102F6000ADF80E0001A9184801F0BBFB012240F2A8
:102F70002551154801F04DFC0121134801F03DFC9D
:102F800006B010BD10B540F225510F4801F026FDE6
:102F9000B8B101200D4908700B4801F09FFC0C49A5
:102FA0000C4AB2F9002088540A480088401C00B23C
:102FB000084908800846B0F900000A2801DB002013
:102FC000088010BD00080140003801407200002058
:102FD000310900207400002010B500F0E7FF4FF425
:102FE000803001F003F801F040F80446012C22D1B2
:102FF00000F064FB022000F04DFB002001F07BF8A4
:10300000002001F08AF8A00201F07EF810492004A7
:1030100001F054F8012001F05DF800BF392001F003
:1030200008F80028FAD0022001F057F800BF01F09C
:103030005DF80828FBD101217D2001F025F901214F
:10304000080301F02EF90121C80501F02AF910BD8D
:1030500000041C0008B50121102001F015F9102012
:10306000ADF8000048208DF8030003208DF8020021
:103070006946F84800F04CFE08BD10B51021F5482F
:1030800000F0D9FE012801D1002010BD0120FCE78D
:1030900010B504462046FFF713FE10BD10B53820CA
:1030A000FFF76BFE10BD10B50020FFF766FE10BDE8
:1030B00008B50121042001F0E7F81020ADF8000068
:1030C0008DF8030003208DF802006946E24800F005
:1030D0001FFE1021E04800F0C8FEFFF718FE012097
:1030E000DE49086008BD10B50120DC490860FF20FA
:1030F000FFF7CEFF10BD10B5002400BFFF20FFF783
:10310000C7FFFF2801D1002010BD641C6FF07F4075
:103110008442F3D30120F7E710B50020CF490860BF
:10312000FFF7E9FF08B9002010BDFFF7DCFF012021
:10313000FAE770B505464FF6FF7401E0601E84B2F1
:10314000FF20FFF7A5FFA84201D0002CF6D10CB953
:10315000FF2070BD0020FCE770B504460D46FE2040
:10316000FFF7E7FF08B1012070BD04E0FF20FFF783
:10317000A7FD2070641C281EA5F101018DB2F5D1B8
:10318000FF20FFF785FFFF20FFF782FF0020EBE71E
:1031900070B506460D46FFF7AEFF08B1012070BDC1
:1031A0002846FFF775FFFD2D19D0002404E0305D9F
:1031B000FFF786FD601C84B2B4F5007FF7DBFF20CB
:1031C000FFF766FFFF20FFF763FFFF20FFF760FFB9
:1031D000044604F01F00052801D00220DFE700208C
:1031E000DDE72DE9F04105460C4617464FF0000893
:1031F000FFF779FFFFF790FF10B1FF20BDE8F081E6
:1032000045F04000FFF744FF200EFFF741FFC4F3F5
:103210000740FFF73DFFC4F30720FFF739FFE0B297
:10322000FFF736FF3846FFF733FF0C2D02D1FF20A2
:10323000FFF72EFF4FF01F0800BFFF20FFF728FF0A
:10324000064606F0800030B1B8F10000A8F1010197
:1032500001F0FF08F1D13046D0E770B505460122F4
:1032600000210A20FFF7BDFF044624B9102128469B
:10327000FFF772FF0446FFF736FF0CB1012070BD67
:103280000020FCE770B50546012200210920FFF768
:10329000A8FF044624B910212846FFF75DFF044625
:1032A000FFF721FF0CB1012070BD0020FCE77FB5C6
:1032B0006846FFF7E7FF10B1002004B070BD9DF82D
:1032C000000000F0C000402809D19DF809009DF8D9
:1032D000081000EB0120401C84B2A50220E09DF8FC
:1032E000050000F00F009DF80A1000EBD1109DF8CA
:1032F000091001F0030100EB4100861C9DF8080055
:1033000080119DF8071000EB81009DF8061001F078
:10331000030100EB8120441CA6F1090004FA00F52A
:103320002846CAE7F8B5FFF7C3FEFFF7B7FE00254A
:1033300004E0FF20FFF7ACFE681C85B20A2DF8DB25
:10334000142600BF952200210846FFF74AFF0446D5
:10335000012C04D0301EA6F101018EB2F2D1002062
:103360003F490870012C4AD187224FF4D5710820BB
:10337000FFF737FF012847D1002506E0FF20FFF7C0
:1033800087FE0DF80500681C85B2042DF6DB9DF85C
:1033900002000128E7D19DF80300AA287ED14FF64C
:1033A000FE7600BF012200213720FFF71AFF01221D
:1033B00091072920FFF715FF044624B1301EA6F11E
:1033C00001018EB2EED1002E68D0012200213A20F8
:1033D000FFF707FF002861D1002506E0FF20FFF777
:1033E00057FE0DF80500681C85B2042DF6DB9DF82C
:1033F000000000F0400018B10620194908704DE0A7
:1034000004201749087049E0012200213720FFF706
:10341000E8FE012200212920FFF7E3FE0446012CEB
:1034200020DC02200E4908704FF6FE7600BF012214
:1034300000213720FFF7D5FE012200212920FFF7C8
:10344000D0FE044604B3301EA6F101018EB2EED1C7
:103450001AE00000001001400008014090012142E4
:10346000820000200120534908704FF6FE7600BF0D
:10347000012200211046FFF7B4FE044624B1301E9D
:10348000A6F101018EB2F3D12EB10122510210201A
:10349000FFF7A7FE10B1002046490870FFF723FE92
:1034A000FFF701FE4348007808B10020F8BD0CB1D9
:1034B0002046FBE7AA20F9E72DE9F04106460F4632
:1034C00015463C480078062800D07F02012D0CD11B
:1034D000012239461120FFF784FE0446FCB9690237
:1034E0003046FFF739FE044619E001223946122022
:1034F000FFF777FE044600BF4FF400713046FFF738
:103500002BFE044606F50076681EC0B2051E01D0EB
:10351000002CF1D0012200210C20FFF762FEFFF702
:10352000E2FD2046BDE8F0812DE9F04106460F4658
:10353000154620480078062800D07F02012D0CD1C6
:10354000012239461820FFF74CFE04466CBBFE21D1
:103550003046FFF71DFE044627E016480078012894
:1035600009D0012200213720FFF73BFE0122294626
:103570001720FFF736FE012239461920FFF731FEEA
:10358000044694B900BFFC213046FFF701FE044613
:1035900006F50076681EC0B2051E01D0002CF2D0E0
:1035A000FD210020FFF7F4FD0446FFF79CFD2046B7
:1035B000BDE8F0818200002031490143314A1160A9
:1035C000704770B5002100230F22C47804B32D4C3E
:1035D000246804F4E064C4F5E064210AC1F1040342
:1035E000CA40447804FA03F1847814402143090165
:1035F000254C0678A155047804F01F050124AC4041
:1036000005786D11AD0005F1E025C5F8004109E030
:10361000047804F01F050124AC401C4D0678761197
:1036200045F8264070BD1A4A0A400243154B1B1F3D
:103630001A60704739B1134A121D12680243114BC8
:103640001B1D1A6006E00F4A121D126882430D4BC3
:103650001B1D1A607047042808D14FF0E02109694A
:1036600041F004014FF0E022116107E04FF0E0214A
:10367000096921F004014FF0E02211617047000058
:103680000000FA050CED00E000E400E080E100E05D
:1036900080FFFF1F01460020FE4A106800F038003E
:1036A000084310607047FB49096821F00801F94A96
:1036B000116011460968014311607047F5490968B6
:1036C00021F01001F34A11601146096801431160AD
:1036D0007047F148EF494860F04848607047EE484D
:1036E000EC494860ED4848607047EA48006940F09E
:1036F0008000E84908617047E648006940F08000B2
:10370000E449086170470420E249C96801F00101F9
:1037100009B101200EE0DF49C96801F0040109B1D7
:10372000022007E0DB49C96801F0100109B103205C
:1037300000E00420704700B502460423FFF7E3FFD2
:10374000034603E0FFF7DFFF0346521E012B01D1C2
:10375000002AF7D102B90523184600BD30B504464A
:1037600004254FF43020FFF7E6FF0546042D17D15E
:10377000C848006940F00200C64908610846446133
:10378000006940F0400008614FF43020FFF7D3FF9C
:103790000546C048006941F6FD710840BD49086111
:1037A000284630BD10B504244FF43020FFF7C3FF86
:1037B0000446042C16D1B748006940F00400B5490E
:1037C00008610846006940F0400008614FF430206D
:1037D000FFF7B1FF0446AF48006941F6FB710840AE
:1037E000AC490861204610BD00B502460423FFF72E
:1037F0008AFF034603E0FFF786FF0346521E012BB4
:1038000001D1002AF7D102B90523184600BD10B531
:1038100004244FF43020FFF7E7FF0446042C16D1B0
:103820009C48006940F004009A4908610846006914
:1038300040F0400008614FF43020FFF7D5FF044608
:103840009448006941F6FB7108409249086120469E
:1038500010BD00208F49C96901F0020109B10120A2
:1038600000E00020704730B5A5250424FFF7F1FFE4
:1038700000B100254FF43020FFF75DFF0446042C13
:103880003AD1854883498860844888600846006941
:1038900040F0200008610846006940F040000861DF
:1038A0004FF43020FFF747FF0446042C1BD1794822
:1038B000006941F6DF7108407649086108460069F1
:1038C00040F01000086176480580E002FFF733FF02
:1038D0000446052C10D06F48006941F6EF7108408E
:1038E0006C49086108E0052C06D06A48006941F679
:1038F000EF71084067490861204630BD78B506463B
:103900000C46042500200090E802FFF714FF05464E
:10391000042D24D15F48006940F001005D49086131
:103920003480E802FFF707FF0546042D10D1B01CD4
:103930000090200C00990880E802FFF7FCFE054685
:103940005448006941F6FE7108405249086106E09A
:103950005048006941F6FE7108404E49086128460A
:1039600078BD70B504460D460426F002FFF7E3FE6D
:103970000646042E11D14748006940F00100454930
:1039800008612580F002FFF7D6FE0646414800692F
:1039900041F6FE7108403F490861304670BD70B580
:1039A00005460E460424E002FFF7C5FE0446042C3B
:1039B00017D1394837498860384888600846006917
:1039C00040F0100008612E80E002FFF7B4FE0446CC
:1039D000052C06D02F48006941F6EF7108402D49AB
:1039E0000861204670BD2DE9F04304464FF6FF768E
:1039F0003746B046B1460425E443E6B2C4F3072790
:103A0000C4F307484FEA1469E802FFF794FE05463D
:103A1000042D49D120481F49886020488860084605
:103A2000006940F010000861FF2E06D01C480830E5
:103A30000680E802FFF77FFE0546042D08D1FF2F20
:103A400006D017480A300780E802FFF774FE0546E3
:103A5000042D0AD1B8F1FF0F07D011480C30A0F89F
:103A60000080E802FFF767FE0546042D0AD1B9F190
:103A7000FF0F07D00A480E30A0F80090E802FFF7C9
:103A80005AFE0546052D0FD00248006941F6EF7138
:103A9000084007E00020024023016745AB89EFCDD5
:103AA00000F8FF1F664908612846BDE8F08330B57D
:103AB000054604244FF43020FFF73DFE0446042C55
:103AC00041D160485E4988605F4888600846006967
:103AD00040F0200008610846006940F0400008619D
:103AE0004FF43020FFF727FE0446042C22D154481F
:103AF000006941F6DF7108405149086108460069D4
:103B000040F0100008611DB100205049088002E01B
:103B1000A5204E4908804FF43020FFF70CFE0446E4
:103B2000052C10D04648006941F6EF710840444921
:103B3000086108E0052C06D04148006941F6DF71B4
:103B400008403F490861204630BDF0B505460E46A5
:103B5000174604243B483A4988603B488860E002A5
:103B6000FFF7E9FD0446042C19D13548006940F0FF
:103B700010003349086147F0F800304328433349C7
:103B8000891C0880E002FFF7D6FD0446052C06D00C
:103B90002B48006941F6EF71084029490861204629
:103BA000F0BD2748C069800870472548006A704703
:103BB00000202349096801F0200109B1012000E03B
:103BC0000020704729B11E4A126902431C4B1A613A
:103BD00004E01B4A12698243194B1A61704701467F
:103BE0000020012908D1164AD26902F001020AB167
:103BF000012008E0002006E0114AD2680A400AB11C
:103C0000012000E0002070470D49C8607047042083
:103C10000B49C96801F0010109B101200EE0084912
:103C2000C96801F0040109B1022007E00449C9682C
:103C300001F0100109B1032000E0042070470000EA
:103C40000020024023016745AB89EFCD00F8FF1F3C
:103C500010B50446CC48844208D10121042000F06C
:103C60002DFB0021042000F029FB46E0C7488442D8
:103C700008D10121082000F021FB0021082000F0DC
:103C80001DFB3AE0C248844208D10121102000F017
:103C900015FB0021102000F011FB2EE0BD488442EE
:103CA00008D10121202000F009FB0021202000F094
:103CB00005FB22E0B848844208D10121402000F0F1
:103CC000FDFA0021402000F0F9FA16E0B3488442E2
:103CD00008D10121802000F0F1FA0021802000F0BD
:103CE000EDFA0AE0AE48844207D10121801500F0C8
:103CF000E5FA0021A01500F0E1FA10BD10B5012190
:103D0000084600F0DBFA0021012000F0D7FA10BDD0
:103D10002DE9F04102460025002600200023002462
:103D2000002791F803C00CF00F0591F803C00CF0C8
:103D3000100CBCF1000F03D091F802C04CEA05054D
:103D400091F800C0BCF1000F31D0146800202BE0C6
:103D50004FF0010C0CFA00F3B1F800C00CEA0306B6
:103D60009E4220D183004FF00F0C0CFA03F7BC43A6
:103D700005FA03FC4CEA040491F803C0BCF1280FD7
:103D800006D14FF0010C0CFA00FCC2F814C00AE096
:103D900091F803C0BCF1480F05D14FF0010C0CFAAB
:103DA00000FCC2F810C0401C0828D1D31460B1F840
:103DB00000C0BCF1FF0F34DD546800202EE000F19C
:103DC000080C4FF0010808FA0CF3B1F800C00CEA37
:103DD00003069E4221D183004FF00F0C0CFA03F72B
:103DE000BC4305FA03FC4CEA040491F803C0BCF19F
:103DF000280F05D100F1080C08FA0CF8C2F814805D
:103E000091F803C0BCF1480F07D100F1080C4FF046
:103E1000010808FA0CF8C2F81080401C0828CED31C
:103E20005460BDE8F0814FF6FF710180022181707E
:103E30000421C17070470246002093680B400BB10B
:103E4000012000E0002070470146886880B270477A
:103E500002460020D3680B400BB1012000E0002097
:103E600070470146C86880B2704701617047416180
:103E700070470AB1016100E041617047C16070475D
:103E80004FF480320A438261816182618269826972
:103E9000704702460020434B18684FF68073184065
:103EA00040EA021008433F4B186070473E49C86122
:103EB0007047F0B50A46002300240021002500F0D9
:103EC0000046B6F1004F02D1364EF16901E0354EA1
:103ED0007168C0F3034583B200F44016B6F5401F85
:103EE00008D121F070612F4E766826F070662D4F54
:103EF0007E6012E000F48016B6F5801F06D103261E
:103F000006FA05F4A14341F0706106E0460D360162
:103F100003FA06F6B14341F0706122B1460D360155
:103F200003FA06F6314300F00046B6F1004F02D125
:103F30001C4EF16101E01B4E7160F0BD30B50022F6
:103F40008B071C0F0F2303FA04F2164B08338C1057
:103F500053F824309343134C08348D1044F8253023
:103F600023468C1053F824308C07240F00FA04F4F5
:103F700023430C4C08348D1044F8253030BD0A49D9
:103F8000DC3108607047000000080140000C01406F
:103F9000001001400014014000180140001C0140C5
:103FA000002001400000014000002042DF4800687E
:103FB00040F00100DD49086008464068DC490840DF
:103FC000DA49486008460068DA490840D74908607D
:103FD0000846006820F4802008600846406820F405
:103FE000FE0048604FF41F0088607047CF490968A1
:103FF00021F48031CD4A11601146096821F48021F5
:104000001160B0F5803F03D0B0F5802F0ED106E0EF
:10401000C649096841F48031C44A116007E0C349C8
:10402000096841F4A021C14A116000E000BF00BF4F
:10403000704710B501460022002300204A11012AD2
:1040400002D1BA4C236806E0022A02D1B74C236A97
:1040500001E0B64C636A01F01F02012494401C4049
:104060000CB1012000E0002010BD38B50020009008
:104070000024002500BF3120FFF7DBFF0546009834
:10408000401C00900098B0F5A06F01D0002DF2D038
:104090003120FFF7CEFF08B1012400E000242046C4
:1040A00038BD01460020A14A106820F0F80040EA1F
:1040B000C10010607047A0490860704702460020A8
:1040C0009A4B586820F47C1042EA01031843974B3E
:1040D0005860704798490866704701460020934A27
:1040E000506820F003000843506070478F484068D4
:1040F00000F00C007047014600208C4A506820F008
:10410000F00008435060704701460020874A50681D
:1041100020F4E06008435060704701460020834A65
:10412000506820F4605040EAC1005060704729B1E7
:104130007E4A527A02437D4B5A7204E07B4A527A9D
:1041400082437A4B5A7270477B49D8310860704776
:1041500001460020754A506820F4404008435060F2
:1041600070470021714A20321170704A82F8201085
:10417000012802D004280AD104E001216B4A203230
:10418000117005E00521694A2032117000E000BF7E
:1041900000BF70476949086070476449096A014374
:1041A000624A11627047654944390860704730B50A
:1041B00000210022002400235C4D6D6805F00C01F5
:1041C00021B1042905D0082923D105E05C4D056003
:1041D00022E05B4D05601FE0544D6D6805F47012E0
:1041E000524D6D6805F48034022505EB92421CB9EE
:1041F000544D554305600BE04C4D6D6805F400359A
:104200001DB1504D5543056002E04D4D55430560CD
:1042100002E04B4D056000BF00BF444D6D6805F0E6
:10422000F0010909484D6B5C0568DD4045603F4D74
:104230006D6805F4E061090A434D6B5C4568DD403B
:1042400085603A4D6D6805F46051C90A3E4D6B5C5E
:104250004568DD40C560354D6D6805F44041890B0A
:104260003A4D6B5CC568B5FBF3F5056130BD29B10E
:104270002E4A526902432D4B5A6104E02B4A52697F
:1042800082432A4B5A61704729B1284A92690243F6
:10429000264B9A6104E0254A92698243234B9A6136
:1042A000704729B1214AD2690243204BDA6104E008
:1042B0001E4AD26982431D4BDA61704729B11B4AFD
:1042C000D2680243194BDA6004E0184AD26882438C
:1042D000164BDA60704729B1144A12690243134B36
:1042E0001A6104E0114A12698243104B1A61704747
:1042F00012494039086070470F49C86470470B493C
:10430000C87170470948406A40F0807007494862A8
:10431000704701460020054A92680A400AB1012010
:1043200000E0002070470149887270470010024089
:104330000000FFF8FFFFF6FE000042428004424208
:1043400000127A0000093D00830000209300002045
:1043500010B50446BE48844208D101218014FFF7FD
:10436000ADFF0021A014FFF7A9FF16E0B948844271
:1043700008D101210014FFF7AEFF00212014FFF740
:10438000AAFF0AE0B448844207D10121C013FFF715
:10439000A2FF0021E013FFF79EFF10BD10B5002221
:1043A000028802F441520B884C8823438C882343B3
:1043B000CC8823430C8923434C8923438C89234392
:1043C000CC8923431A430280838B4FF2FF7423402E
:1043D00083830B8A038210BD2DE9F04F85B005461B
:1043E0000C464FF0000902274FF000084FF0010B78
:1043F0000026B246A88B4FF240010840A883022055
:104400002884B5F81C90A068022801D100BF38E0CC
:10441000A08810B94FF0010B01E04FF0020B8D485E
:10442000854200D100E000BF6846FFF7C0FEDDF81E
:1044300000A0E088B0F5007F0AD14FEA1A2000EB17
:1044400080004000A168B0FBF1F0401D86B20BE097
:104450004FEA4B10BAFBF0F000EB80004000A1687F
:10446000B0FBF1F0401D86B20A20B6FBF0F606F074
:104470000108A6EB0800C0F34F074FF6FF7000EAF3
:104480000828022F01DBFF2F02DD02274FF0000872
:10449000E08840EA080038432884A088A1890843BE
:1044A000618808432188084340F4006040EA090914
:1044B000A5F81C9005B0BDE8F08F00210180418077
:1044C0008180C180018141818181C1810721018277
:1044D00070470021018041808180C180022181607C
:1044E00000218181704721B1028842F040020280A0
:1044F00004E002884FF6BF731A400280704721B172
:10450000828B42F48062828304E0828B4FF6FF3319
:104510001A408283704730B5002400230C11012516
:10452000A540ABB21AB185881D43858002E085881D
:104530009D43858030BD1AB183880B43838002E0A0
:1045400083888B43838070478181704701468889C7
:1045500070474FF6FF62914204D0028842F48072A5
:10456000028004E002884FF6FF631A400280704721
:1045700021B1828842F00402828004E082884FF6F2
:10458000FB731A408280704702884FF2FF731A4013
:10459000028002880A4302807047018841F48051FA
:1045A0000180704721B1028842F40052028004E089
:1045B00002884DF6FF731A400280704702460020C1
:1045C000012901D0108B00E0908A70470146088ACB
:1045D0007047B1F5804F04D1028842F480420280D6
:1045E00004E002884BF6FF731A40028070470246CF
:1045F000002013890B400BB1012000E00020704720
:10460000CA4302817047F0B502460020002400230F
:10461000002501F00F070126BE40B4B20B110126A0
:104620009E40B3B2968806EA03051689264016B165
:104630000DB1012000E00020F0BD10B5002201F016
:104640000F040123A3409AB2D343038110BD00009D
:104650000030014000380040003C004010B50446E6
:10466000FB48844209D101218803FFF727FE00217E
:104670004FF48040FFF722FE32E0F648844209D131
:1046800001214804FFF727FE00214FF40030FFF717
:1046900022FE25E0F048844209D101218804FFF779
:1046A0001AFE00214FF48020FFF715FE18E0EB48BA
:1046B000844209D10121C804FFF70DFE00214FF407
:1046C0000020FFF708FE0BE0E548844208D10121F5
:1046D0000805FFF700FE00214FF48010FFF7FBFDF7
:1046E00010BD2DE9F04786B005460E460024A246CF
:1046F00000BFA1460027B08900B100BF2F462C8A19
:104700004CF6FF700440F08804432C82AC894EF6CE
:10471000F3100440B0883189084371890843044389
:10472000AC81AC8A4FF6FF400440B0890443AC82B0
:1047300001A8FFF73CFDC648874202D1DDF810A072
:1047400001E0DDF80CA0A88900F4004040B10AEBBC
:10475000CA0000EB0A1031684900B0FBF1F807E02D
:104760000AEBCA0000EB0A1031688900B0FBF1F8CF
:104770006420B8FBF0F004012009642101FB1089DA
:10478000A88900F4004040B1322000EBC900B0FB22
:10479000F1F000F00700044308E0322000EB0910BC
:1047A0006421B0FBF1F000F00F0004432C8106B04F
:1047B000BDE8F0874FF41651016000218180C1806F
:1047C00001810C21418100218181704710B5024691
:1047D0000020108A4FF2FF0318400B884C882343B7
:1047E0008C882343CC8823431843108210BD0021BA
:1047F000018041808180C180704721B1828942F46B
:104800000052828104E082894DF6FF731A40828152
:104810007047F0B50346002400260025002040F62E
:104820006A17B94200D100BF1846C1F3421401F023
:104830001F06012707FA06F5012C01D10C3004E010
:10484000022C01D1103000E014301AB107682F4358
:10485000076002E00768AF430760F0BD1AB1838AC2
:104860000B43838202E0838A8B4383827047028AF0
:104870004FF6F0731A400282028A0A43028270479E
:1048800082894FF2FF731A40828182890A438281B2
:10489000704721B1828942F00202828104E082895C
:1048A0004FF6FD731A4082817047028A4FF6DF731C
:1048B0001A400282028A0A430282704721B1028AA8
:1048C00042F48042028204E0028A4BF6FF731A40EF
:1048D00002827047C1F308028280704701468888CF
:1048E000C0F308007047818941F001018181704760
:1048F000028BD2B20283028B42EA0122028370470A
:10490000028B02F47F420283028B0A4302837047C8
:1049100021B1828A42F02002828204E0828A4FF62C
:10492000DF731A408282704721B1828A42F01002FE
:10493000828204E0828A4FF6EF731A4082827047C7
:1049400021B1828A42F00802828204E0828A4FF614
:10495000F7731A408282704721B1828942F4004283
:10496000828103E08289C2F30E028281704721B105
:10497000828A42F40062828204E0828A4FF2FF73EC
:104980001A4082827047828A4FF6FB731A408282F5
:10499000828A0A438282704721B1828A42F00202EF
:1049A000828204E0828A4FF6FD731A408282704749
:1049B00002460020B1F5007F00D100BF13880B40F4
:1049C0000BB1012000E00020704701F40072B2F545
:1049D000007F00D100BFCA430280704770B5024615
:1049E000002400230025002040F66A16B14200D1C1
:1049F00000BFC1F3421501F01F03012606FA03F3BD
:104A0000012D02D19689334006E0022D02D1168A8B
:104A1000334001E0968A33400C12012606FA04F472
:104A20001688344013B10CB1012000E0002070BDA5
:104A300010B50022002340F66A14A14200D100BF45
:104A40000A1201249440A3B2DC43048010BD00008C
:104A5000003801400044004000480040004C004045
:104A6000005000400CB50020019000906C48006898
:104A700040F480306A49086000BF6948006800F46B
:104A8000003000900198401C0190009818B90198DE
:104A9000B0F5A06FF1D16248006800F4003010B1A9
:104AA0000120009001E0002000900098012843D1EF
:104AB0005C48006840F010005A49086008460068E9
:104AC00020F0030008600846006840F0020008601B
:104AD0005348406852494860084640684860084664
:104AE000406840F4806048600846406820F47C10CC
:104AF00048600846406840F4E8104860084600688E
:104B000040F08070086000BF4548006800F0007009
:104B10000028F9D04248406820F00300404948602E
:104B20000846406840F00200486000BF3C484068CA
:104B300000F00C000828F9D10CBD10B5FFF792FF6A
:104B400010BD10B53648006840F0010034490860D7
:104B500008464068344908403149486008460068C2
:104B6000324908402E4908600846006820F4802039
:104B700008600846406820F4FE0048604FF41F00BB
:104B80008860FFF7DAFF4FF000602949086010BD28
:104B900010B5002100200022214B5B6803F00C01BE
:104BA00021B1042906D0082928D107E0214B224C45
:104BB000236027E01F4B204C236023E0184B5B68E9
:104BC00003F47010164B5B6803F48032022303EB8E
:104BD000904022B9194B4343174C23600DE0104B12
:104BE0005B6803F4003323B1144B4343124C23603E
:104BF00003E0104B4343104C236003E00D4B0E4C7D
:104C0000236000BF00BF064B5B68C3F303130C4C6B
:104C1000E15C094B1B68CB40074C236010BD0000D2
:104C200000100240002002400000FFF8FFFFF6FEE7
:104C300008ED00E000127A009800002000093D0015
:104C40009C0000200948804709480047FEE7FEE72E
:104C5000FEE7FEE7FEE7FEE7FEE7FEE7FEE7FEE72C
:104C600004480549054A064B70470000434B0008BD
:104C700031010008B0090020B00F0020B00B002067
:104C8000B00B002010B5431C02E010F8011B71B1FD
:104C90008107FAD14FF0013202C88C1A8C4314EA12
:104CA000C211F9D0C01A0A0603D0C01E10BDC01A26
:104CB00010BD0A0401D0801E10BD0902FCD0401EA8
:104CC00010BD00004FF0013C50F8042B51F8043B9C
:104CD0009A4221D1A2EB0C03934313EACC1317D1D0
:104CE00050F8042B51F8043B9A4215D1A2EB0C0367
:104CF000934313EACC130BD150F8042B51F8043B27
:104D00009A4209D1A2EB0C03934313EACC13DBD0F4
:104D10004FF00000704700BFD01A01BAB1FA81F11C
:104D200001F0180122FA01F0CB40C1F12001DBB201
:104D3000C0B2C01A2CFA01F3D11A914311EAC3117F
:104D4000E6D17047704770477047754600F02CF801
:104D5000AE4605006946534620F00700854618B068
:104D600020B5FFF77DFFBDE820404FF000064FF073
:104D700000074FF000084FF0000B21F00701AC4690
:104D8000ACE8C009ACE8C009ACE8C009ACE8C009AF
:104D90008D46704710B50446AFF300802046BDE84D
:104DA0001040FBF70CBA0000004870475009002083
:104DB00001491820ABBEFEE7260002007047010340
:104DC0000507090E10121416181C1E464154000047
:104DD000F04D000800000020AC0000006C0100084D
:104DE0009C4E0008AC000020040F00008801000861
:104DF00000000000000000000000AA000000000009
:104E000000000000000000000000000000000000A2
:104E10000000000000000000000000000000000092
:104E20000000000000000000000000000000000082
:104E30000000000000000000000000000000000072
:104E40000000000000000000000000000000000062
:104E50000000000000000000000000000000CC3353
:104E6000C33C000000000000000000000000000043
:104E70000000000000000001020304010203040618
:104E8000070809020406080000A24A040000000006
:0C4E9000000000000102030406070809EE
:0400000508000131BD
:00000001FF
